:100000006F00A07D00000000F2010000F40100007C
:1000100000000000000000000000000000000000E0
:1000200000000000000000000000000000000000D0
:10003000D807000000000000D80700000000000002
:10004000D8070000D8070000D8070000D807000034
:10005000D8070000D8070000D8070000D807000024
:10006000D8070000D8070000D8070000D807000014
:10007000D8070000D8070000D8070000D807000004
:10008000D8070000D8070000D8070000D8070000F4
:10009000D8070000D8070000F601000000000000AB
:1000A000511126C022C206C4828282441244A24058
:1000B000310182802A86014593F6150091C232955E
:1000C00085810606F5F9828000000000634E050276
:1000D00063C305042E86AA857D5515C285466378BF
:1000E000B6006356C00006068606E36CB6FE014500
:1000F00063E4C500918D558D85820582F5FA828075
:100100008682C93F2E8582823305A04063D70500D1
:10011000B305B040C1B7B305B0408682653F330533
:10012000A0408282868263C70500634905005D376F
:100130002E858282B305B040E35B05FE3305A04007
:10014000513F3305B040828200003D432A876373EC
:10015000C3029377F700BDEFADE5937606FF3D8AC6
:10016000BA960CC34CC30CC74CC74107E36BD7FE10
:1001700011E28280B306C3408A0697020000969679
:100180006780A6002307B700A306B7002306B700C1
:10019000A305B7002305B700A304B7002304B700E5
:1001A000A303B7002303B700A302B7002302B700DD
:1001B000A301B7002301B700A300B7002300B700D5
:1001C000828093F5F50F93968500D58D9396050162
:1001D000D58D61B793962700970200009696868288
:1001E000E78086FA9680C1171D8F3E96E374C3F8A8
:1001F000A5B701A001A0854537050040EF00703D7F
:1002000019CDB7070020938707009823050798A307
:10021000B7070020938717049823050798A38545FF
:1002200037050040EF00703C73002030EFF25FE7CD
:100230000565511185454105EF009027E1477C8018
:10024000C1473EC48A858D47371501403EC2231100
:100250000100EF009009930700087C80930780025B
:100260003EC48A858547371501403EC2EF00F0073E
:10027000310125BDEFF2DFE205650111854541053C
:1002800002C002C202C402C602C802CA02CC231EB5
:100290000100EF00F0210D4493070002E1448A853C
:1002A000371501407C8026C422C2EF00100493075A
:1002B00000048A85371501407C8026C422C2EF00E5
:1002C000D002B7C704013EC6B70700023ECA930773
:1002D00000023ECC6C009D4737350140FC8602C8C9
:1002E000EF00B022854537350140EF00302505612C
:1002F0006DBBEFF2FFDA611185450545EF00301D5A
:10030000854537050040EF00F02993058002370549
:100310000040EF00102BB16505469385F5B7370512
:100320000040EF00D026814537050040EF009026C1
:1003300085473EC20A85930760027C802301010045
:10034000EF007003854537050040EF00D0270546D4
:10035000854537050040EF00702281453705004094
:10036000EF00F025854537050040EF00B01F210163
:100370002DBBEFF2FFD25111AA862E868144138441
:100380008180A945368532C436C29D3B924693177B
:100390000501C183A94536853EC02D3B82470567CF
:1003A0001307075BBA978C23B307940093160501D4
:1003B0008CA385041143C1822246E39464FC930715
:1003C000F6FF93F7F70F09476367F70032941C2095
:1003D00093E707F81CA03101C9B9EFF27FCC89453A
:1003E00037350140EF00701719C583C5C180373517
:1003F0000140EF005016894537350140EF00F015F8
:1004000019C583C5D18037350140EF00D01465454B
:10041000EF00F0300546C14537150140EF00A074EC
:100420006545EF00D02F0146C14537150140EF006B
:100430008073A5B9EFF2DFC6B707002003C7070432
:100440008D469387070405071377F70F63E7E602E6
:1004500098A388239387C1809423138781802A9748
:100460001D46B305A640182305463316B600BD8ABF
:10047000D18E94A398B395370DB923800700D1BFCF
:10048000EFF21FC21301C1FD614681456800753955
:1004900085451305000202C002C202C4EF005001EC
:1004A000854513050020EF00B0003165EF000073B3
:1004B000371401409147130504408A857C8002C4AB
:1004C0002D25A1478A85130504407C8037240140EF
:1004D00002C4212D13050440692685473EC83ECA43
:1004E000B7070E003ECC6C0089471305044023007B
:1004F000F10202C602CE492EB705000213050440E0
:10050000FD21854513050440F92E8545130504405A
:10051000D92613050440CD26930404402685D5260C
:1005200075FD1305044037240140C526130404401B
:100530002285CD2675FD1301410285BEEFF25FB61F
:100540001301C1FC2A842EC2B28481451306C00265
:10055000280036C0DD3E85450545EF0080732285C5
:100560007521924782462C003EC4930700083ECE78
:10057000930700103ED0930700403ED2930700023D
:100580003ED422858D6726C636CA3ED602C802CC26
:1005900002D831231301410309BEEFF27FB071117C
:1005A0000545F923E122EF0050147165130505207C
:1005B000EF00901AB707002083A547013715000008
:1005C0001305C55BEF00B07C2D29AA853715000007
:1005D0001305C55CEF00B07B91396939193B4D3586
:1005E00037240140B7070240B7040020894613862C
:1005F00044049305C444138587008937B707024034
:10060000138587008545C129130504409D4605468D
:100610008D450D269D460946130504409145192E2A
:10062000130504408545DD2C0146C14537150140C1
:100630001D2B26C0B7040020F53B93871404982394
:1006400019C703D5E1808145238007001D33B70713
:1006500000209387070094236547E37FD7FC23801E
:100660000700371701405C47371500001305C55DCB
:1006700093C787005CC7824793844704AE20EF008E
:100680001071BE202397F18075B7EFF27FA1371468
:1006900002401C403707FFF8414593E717001CC094
:1006A0005C40F98F5CC01C403707F7FE7D17F98F5F
:1006B0001CC01C403707FCFF7D17F98F1CC05C4035
:1006C00041777D17F98F5CC0B7079F001CC4F529DF
:1006D0001C4C93E707021CCCB717014003A7074047
:1006E000938607401377F7F023A0E74003A707405E
:1006F0001367070823A0E74089479CCAB7F7FF1F85
:1007000003C5477D9307F00F6304F5007D897529C4
:10071000B72702409843C176FD16719B98C3984352
:100720001367170098C3B7170240D843D8C3D843FC
:10073000758FD8C3D843B7060001D8C39843558FE7
:1007400098C3984393166700E3DD06FED843B716B7
:100750000240719BD8C3D84313672700D8C32147F1
:10076000DC42B18BE39EE7FE6FF03F94EFF25F93C4
:10077000371702405C43370400209146B18B1304C5
:1007800044016385D700A1466382D704B7376E0161
:10079000938707601CC0B7160240DC420840918373
:1007A00013F7F700B707002093874700BA978C2309
:1007B000DC4293F5F50F93F707083357B50081E74F
:1007C000EFF05F912A8718C06FF03F8E5C43B777D8
:1007D000DC02938707C07DBF01A0970100209381B1
:1007E0006106138101FC171500001305E5E097056C
:1007F000002093852581170600201306A68463FA3E
:10080000C5008322050023A0550011059105E3EAE8
:10081000C5FE170500201305E58293858181637766
:10082000B500232005001105E36DB5FEB7220000D9
:1008300093820288739002308D427390428097F2C7
:10084000FFFF9382227C93E2320073905230EFF0EC
:10085000DFE397020000938282D473901234730016
:100860002030B727014093870740631EF500EFF261
:100870003F838545130500209529814513050020F8
:10088000B5216FF09F8282805C413707F1FF13072B
:10089000F7EF7D8FDC419441A207D58FD98F5CC1E2
:1008A0001C4537F7F1FF1307D77FD4457D8F9C494F
:1008B000D58F94458606D58FD98F1CC55C553707D3
:1008C00010FF7D177D8FDC29FD1793F7F70FD207F7
:1008D000D98F5CD582801C4589C593E717001CC55C
:1008E0008280F99BEDBF1C4589C593E707101CC5A5
:1008F000828093F7F7EFE5BF1C4593E787001CC59F
:10090000828008450D81058982801C4593E7470058
:100910001CC5828008450981058982801C4591C5D6
:1009200037075000D98F1CC582803707B0FF7D176D
:10093000F98FD5BFA54763F8B704138765FF9317F1
:1009400017008322C500BA971D433313F3001343E6
:10095000F3FF33735300B397F600B3E767005CC54A
:10096000994763E3C7047D16931726003E965859AE
:10097000FD47B397C70093C7F7FFF98FB395C5003D
:10098000DD8D4CD982809397150003230501AE9726
:100990001D473317F7001347F7FF33776700B39707
:1009A000F6005D8F18C96DBFB14763E2C7026516D7
:1009B000931726003E961859FD47B397C70093C773
:1009C000F7FFF98FB395C500DD8D0CD982804D16E8
:1009D0001317260054553A96FD47B397C70093C79F
:1009E000F7FFF58FB395C500DD8D4CD582805C4156
:1009F000370700FA7D17F98F5CC15C41DD8D4CC172
:100A00008280B7F7FF1F03A5477C82801C414167A6
:100A10007917F98F1CC12320050023220500232408
:100A20000500B707024023260500138787006317D8
:100A3000E500D8431367F700D8C382801387C70146
:100A40006316E500D8431367070FFDB71387070345
:100A50006318E500D8438566938606F0558FE9BF95
:100A6000138747046315E500D843BD66C5BF1387E8
:100A700087056316E500D843B7060F00C5B713878F
:100A8000C7066316E500D843B706F000C1BF138759
:100A90000708E314E5FAD843B706000FC1B71841B9
:100AA000E177BD0794517D8F9C45D58F9449D58FB3
:100AB000D449D58F944DD58FD44DD58FD451D58F62
:100AC0009455D58FD98F1CC1DC455CC19C411CC598
:100AD000DC415CC582801C4189C593E717001CC1BD
:100AE000828041677917F98FDDBF944593F706013E
:100AF00093F2F60081C7DC41B3E2F20083D3050034
:100B000093F7F30FA5C303230500611122C226C08A
:100B10008147130480029304800405473316F700CD
:100B200033F7C3006312E602939527003D4733175E
:100B3000B7001347F7FF33736700B395B20033E391
:100B40006500639D860050C985072147E397E7FC50
:100B5000124423206500824421018280E39696FEA0
:100B600010C9DDB7828019C20CC982804CC982804D
:100B700023A8A180828083A60181854718216390E4
:100B8000F6021C31639CD7023C219A0793E707F8D1
:100B9000B7E600E093F7F70FBA962380F640854654
:100BA000935757003397E600544189CE9387070443
:100BB0008A07B7E600E0B69798C38280EDF33C2140
:100BC0009A07F9B793870706E5B7371702401C4322
:100BD0000E0593F777F05D8D08C38280B71602404B
:100BE000DC4241771307F77FF98F5D8DC8C28280A1
:100BF000EFF20FCB371702405C4391462A84B18B4A
:100C00006385D700A1466380D708B7376E01938705
:100C100007601CC0B7160240DC42918313F7F7004F
:100C2000B70700209387C702BA978C23DC4218408D
:100C300093F5F50F93F707083355B70081E73A8529
:100C4000EFF04FC948C008C448C4B7170240DC439E
:100C50008D46AD83FD8B13D737008A07F18BD98F73
:100C600013F6370113F7370063F4C600138747FF05
:100C7000B707002093878701BA978C23EFF08FC5C1
:100C800008C86FF08FC25C43B777DC02938707C058
:100C900049B799C5371702405C4B5D8D48CB8280C0
:100CA000B7170240D84B1345F5FF798DC8CB82802A
:100CB00099C5371702401C4F5D8D08CF8280B7174A
:100CC0000240984F1345F5FF798D88CF828099C5F2
:100CD000371702405C4F5D8D48CF8280B7170240C6
:100CE000D84F1345F5FF798DC8CF828099C5371746
:100CF00002405C475D8D48C78280B7170240D847E5
:100D00001345F5FF798DC8C782801A218D679387B7
:100D10000704B6217D8F9E21D58FD621D58FF62150
:100D2000D58F9625D58FB625D58FD625D58FF62587
:100D3000D58FD98F1EA19E291EA982801E2189C50B
:100D400093E707041EA18280C207C18393F7F7FBD4
:100D5000C207C183C5BF4EA582800A256D8D33357C
:100D6000A00082801E2189C593E717001EA1828002
:100D7000C207C183F99BC207C183CDBF5E2501C6EF
:100D8000DD8D4EA5828093C5F5FFFD8DDDBF0EB5CF
:100D900052A982801E21C207C18393F7F7F8DD8D27
:100DA0000EA182801E2189C593E707081EA18280BB
:100DB000C207C18393F7F7F7C207C183C5BF4EB11E
:100DC00082804EB5828093C5F5FFC205C1810EA910
:100DD00082801E294A25ED8F4205418189C76D8D8C
:100DE0003335A00082800145828093C5F5FFC2059E
:100DF000C1810EA98280EFF2AFAA1629F577FD17FF
:100E0000F58FF621DA252111D58F1EA95625FD77FC
:100E10009387379FF58FD6212A842EC0D58F9625AC
:100E2000D58FB625D58F5EA55E29C207C18393F7FE
:100E3000F7CF5D8F5AA94800653BB74701409387BC
:100E4000078082456312F406C2475A24139517009F
:100E50003E9542070E0541873E958C416358070435
:100E60008605EFF02FA7930540062AC0EFF08FA666
:100E7000824793144500930540063E85EFF04FA846
:100E80005E24C207C18763D507020E05930540069D
:100E900013052503EFF00FA41D89C98CC204C1807E
:100EA00006A461016FF06FA0B24745B78A0555BF30
:100EB00012059305400613052503EFF0AFA13D8908
:100EC000E9BF91C55E250967D98F5EA582805A2545
:100ED000F977FD17F98FD5BF93F5F51F4EA18280E5
:100EE0000A216D8D3335A0008280EFF26F9BB7072A
:100EF000002003A54701B7157A0093850520EFF080
:100F00006F9D1375F50F238BA18093175500898F63
:100F10008A073E950E05239AA1806FF00F99EFF294
:100F20002F9837F400E05C40AA85F99B5CC003C5AC
:100F30006181EFF02F9808C8232404001C4093E738
:100F400017001CC0B7F700E0D843058B75DF984346
:100F5000799B98C36FF06F95EFF28F942A84116597
:100F60001111854513050502A133930700027C800A
:100F7000371501408D473EC28A85E147130505407C
:100F80003EC4A53622C637440140B70708006C00AE
:100F9000130504803ECA02C8231C0100A93D8545F3
:100FA00013050480393F71016FF02F90EFF24F8FDE
:100FB0007111AE840144635DC402B74701401387D9
:100FC00007803A859305000432C0193FB7470140B6
:100FD00013870780024675D5338784008305070091
:100FE000138507800504C205C181FD350246E1B7BE
:100FF000328511016FF06F8B411106C62EC00DCDE9
:101000001841AA8705C358417D5511CB8546631BFE
:10101000D70098472300070023A207000545B240E8
:10102000410182809847824614A39847050798C7D4
:10103000D8437D17D8C3DDB705468A85853FF9BFFC
:10104000011122CC2EC206CE26CA2A8481479305DE
:101050000002634506029245BE95838505008DE535
:1010600063D8C70263D4E702198E1305000293F513
:1010700026002AC089C501E7930500032EC0858A92
:10108000814495EAB2840DA08507F1B71D8EF1BFAA
:101090000146E1BF824522853AC832C63EC4A93F17
:1010A000A24732464247FD14E34690FEB2846353A2
:1010B00006008144058E63C7E702A6879246338700
:1010C000974036978305070095EDB28463449004FA
:1010D000635306000146F2406244D2443305F600F1
:1010E000056182801D8FBA8793050003228532C86F
:1010F0003EC63AC41137B24722474246FD17EDF7C4
:10110000BA9465BF228532C63EC4FD35A247324639
:1011100085076DB78245228532C43EC2F13DFD147C
:101120002246924765B7397106DE22DC26DA3EC2D6
:1011300032833A8689ED92469307000301476C0893
:10114000FC86FD3DF2506254D25421618280AA8413
:101150003684AE8791CA294701446317E30063D5FB
:101160000500B307B04005448646A30901021307F2
:101170003103938666FC36C49A853E8532CA3AC8E6
:101180001AC63EC0EFE0DFF7A5468247324342472A
:10119000524663D4A600A24636951305050393066E
:1011A000F7FFA30FA7FE9A853E8532CC3ACA1AC82C
:1011B0003EC636C0EFE01FF2B24742435247624696
:1011C00063F9670401CC29CA9247898BB1C793059B
:1011D000D002268532C40D3522467D169247918B6A
:1011E00095C306479307100632C49305000326856E
:1011F000631EF7021135930580072685F53B2246CD
:10120000090479161647924682452685153D229592
:1012100015BFAA8702478DB782469307D0020144C3
:10122000A38FF6FE9307E7FF3EC04DBFF133930552
:101230008005E1B70145828001458280130181FD6F
:1012400022D026CE06D22AC4AE82328402C681447F
:101250008385020089EDA24781C781453E85693BB0
:10126000925002542685F244130181028280930732
:1012700050026388F500224516C88504B53BC2427A
:1012800039A88387120013871200639CB700224598
:10129000930550023AC88D3342478504BA828502CD
:1012A00045BFD5DB9306B0026389D70463C8F60057
:1012B000930630026386D704814705A09306D002C7
:1012C000638AD70093060003E398D7FE13872200B2
:1012D000894721A01387220085478306070013064C
:1012E000B0026383C6046341D60213063002638BE7
:1012F000C602BA820145A54681A0138722006DBFB0
:10130000138722009147D1BF1306D0026389C6001C
:1013100013060003E39FC6FC93E7270031A00507EF
:101320008547C1BF93E747000507E1B713162500BE
:10133000329506053A95850203860200130706FDDD
:101340009375F70FE3F4B6FE1307E0029946631EA8
:10135000E60085028146A54503860200130606FDC8
:101360001377F60F63F5E50236C60387020013060E
:10137000A006630DC70A6343E6021306C0046307B1
:10138000C70A13068006630CC70881452DA813976A
:101390002600BA968606B29685027DBF13064007E0
:1013A0006306C7081306A0076302C7081306C00632
:1013B0008145631AC700038612008D456314E60059
:1013C00085029145850203860200930300061307F8
:1013D000100663C4C300130710049303700663C4AC
:1013E000C30693035006635376189303700463C1D6
:1013F000C30493055004635BB61613073004E3106F
:10140000E6EA18409303440016CA230CE1001EC804
:10141000A30C01000147BE862A862C0849A8038632
:1014200012008145E311E6FA890271BF8502B1BF5E
:1014300093063006E307D6FC63CEC6069306800506
:101440006303D602A9BD930630076304D60463CBB9
:10145000C6029306F0066302D60E9306000793E7D2
:101460004700E31ED6E29146639FD50A93038400AA
:101470000C40504016CA3AC23EC01EC8AA87014757
:10148000C146B9A0930650076308D60693068007A5
:1014900045BF1840B7160000930344009385C65E0D
:1014A00011C3BA85324716CA1EC8BE862A8622458F
:1014B000413E0DA091466394D502930384000C40F5
:1014C000504016CA3AC23EC01EC8AA870547A94660
:1014D00022458D33C243AA941E84D242C9B3B24678
:1014E0000C4016C836C23AC011042A8785462946E0
:1014F00022451539AA9461B39146639DD5009303A3
:1015000084000C40504016CA3AC23EC01EC8AA878A
:10151000014775BFB2460C4016C836C23AC0110426
:101520002A878146E9B7B24616C80C40414636C202
:101530003AC011042A87814665BF9146639ED50053
:10154000930384000C40504016CA3AC23EC01EC8E5
:10155000AA870147A146ADBFB2460C4016C836C2A5
:101560003AC011042A878146214659B70C40130618
:10157000840040403AC22A87224532C83EC02286B3
:10158000B687A94616CA4D39AA944244B9B7130181
:10159000C1FD2EC832CAAA851008014506C636CC40
:1015A0003ACE3ED032C05939B24013014102828056
:1015B0003F065B4F666D7D077F6F00005379737444
:1015C000656D436C6B3A25640D0A000043686970D1
:1015D00049443A253038780D0A0000004144432040
:1015E0004348343A25640A0D00000000286E756CEB
:0415F0006C29000062
:1015F40013000000010203040506070801020304A6
:1016040005060708006CDC020204060804080C1036
:10161400081018201020304020406080010203048C
:101624000506070801020304050607080000000078
:00000001FF
